:1000000012C02AC029C028C027C026C025C06DC084
:1000100023C022C021C020C01FC01EC01DC01CC0E4
:100020001BC01AC019C011241FBECFEDCDBF10E0F8
:10003000A0E6B0E0EEE2F2E002C005900D92AE362E
:10004000B107D9F710E0AEE6B0E001C01D92A437C9
:10005000B107E1F7A5D0E9C0D3CF899A889812B843
:100060008DE489B988E98AB986E083B980E690E0B1
:10007000909371008093700008951F93182F8A3019
:1000800011F48DE0FADF5D9BFECF1CB980E090E0BB
:100090001F9108955F9BFECF8CB10895AC0120E0C5
:1000A00060E070E004C0CB010197F1F72F5F822F71
:1000B00090E084179507BCF30895959A80E090E04E
:1000C0000197F1F782B312BA089598B3982B98BBB1
:1000D00020E040E050E004C0CA010197F1F72F5F33
:1000E0002E31D1F788B318BA08951F920F920FB628
:1000F0000F9211242F933F934F935F938F939F936E
:100100005F9BFECF8CB1833209F03FC05F9BFECF77
:100110003CB13F3411F03F36A1F4959A80E090E075
:100120000197F1F782B312BAC49A20E040E050E0A0
:1001300004C0CA010197F1F72F5F2E31D1F788B3C0
:1001400018BA333411F0333669F4C39A20E040E032
:1001500050E004C0CA010197F1F72F5F2E31D1F7AB
:1001600088B318BA393411F0393679F488B3886114
:1001700088BB20E040E050E004C0CA010197F1F7DD
:100180002F5F2E31D1F788B318BA9F918F915F916D
:100190004F913F912F910F900FBE0F901F90189588
:1001A000899A889812B88DE489B988E98AB986E075
:1001B00083B980E690E0909371008093700087B3DC
:1001C000886187BB8D9AC39A20E040E050E004C06C
:1001D000CA010197F1F72F5F2E31D1F788B318BA12
:1001E00088B3886188BB20E040E050E004C0CA01C9
:1001F0000197F1F72F5F2E31D1F788B318BAC49A5F
:1002000020E040E050E004C0CA010197F1F72F5F01
:100210002E31D1F788B318BA789485B7806285BF3C
:0E022000889585B78F7D85BFF8CFF894FFCF06
:0E022E0000000002000000003D000000000083
:00000001FF
